{
  "contractName": "AgrowChainStorage",
  "abi": [
    {
      "inputs": [],
      "payable": false,
      "stateMutability": "nonpayable",
      "type": "constructor"
    },
    {
      "anonymous": false,
      "inputs": [
        {
          "indexed": false,
          "internalType": "address",
          "name": "caller",
          "type": "address"
        }
      ],
      "name": "AuthorizedCaller",
      "type": "event"
    },
    {
      "anonymous": false,
      "inputs": [
        {
          "indexed": false,
          "internalType": "address",
          "name": "caller",
          "type": "address"
        }
      ],
      "name": "DeAuthorizedCaller",
      "type": "event"
    },
    {
      "anonymous": false,
      "inputs": [
        {
          "indexed": true,
          "internalType": "address",
          "name": "previousOwner",
          "type": "address"
        }
      ],
      "name": "OwnershipRenounced",
      "type": "event"
    },
    {
      "anonymous": false,
      "inputs": [
        {
          "indexed": true,
          "internalType": "address",
          "name": "previousOwner",
          "type": "address"
        },
        {
          "indexed": true,
          "internalType": "address",
          "name": "newOwner",
          "type": "address"
        }
      ],
      "name": "OwnershipTransferred",
      "type": "event"
    },
    {
      "anonymous": false,
      "inputs": [
        {
          "indexed": false,
          "internalType": "string",
          "name": "registrationNo",
          "type": "string"
        },
        {
          "indexed": false,
          "internalType": "string",
          "name": "farmerName",
          "type": "string"
        },
        {
          "indexed": false,
          "internalType": "string",
          "name": "manufacturerName",
          "type": "string"
        },
        {
          "indexed": false,
          "internalType": "string",
          "name": "distributorName",
          "type": "string"
        },
        {
          "indexed": false,
          "internalType": "string",
          "name": "wholesalerName",
          "type": "string"
        },
        {
          "indexed": false,
          "internalType": "string",
          "name": "retailerName",
          "type": "string"
        }
      ],
      "name": "gBasicDetails",
      "type": "event"
    },
    {
      "anonymous": false,
      "inputs": [
        {
          "indexed": false,
          "internalType": "address",
          "name": "batchNo",
          "type": "address"
        }
      ],
      "name": "sBasicDetails",
      "type": "event"
    },
    {
      "constant": true,
      "inputs": [],
      "name": "lastAccess",
      "outputs": [
        {
          "internalType": "address",
          "name": "",
          "type": "address"
        }
      ],
      "payable": false,
      "stateMutability": "view",
      "type": "function"
    },
    {
      "constant": true,
      "inputs": [],
      "name": "owner",
      "outputs": [
        {
          "internalType": "address",
          "name": "",
          "type": "address"
        }
      ],
      "payable": false,
      "stateMutability": "view",
      "type": "function"
    },
    {
      "constant": false,
      "inputs": [],
      "name": "renounceOwnership",
      "outputs": [],
      "payable": false,
      "stateMutability": "nonpayable",
      "type": "function"
    },
    {
      "constant": false,
      "inputs": [
        {
          "internalType": "address",
          "name": "newOwner",
          "type": "address"
        }
      ],
      "name": "transferOwnership",
      "outputs": [],
      "payable": false,
      "stateMutability": "nonpayable",
      "type": "function"
    },
    {
      "constant": false,
      "inputs": [
        {
          "internalType": "address",
          "name": "_caller",
          "type": "address"
        }
      ],
      "name": "authorizeCaller",
      "outputs": [
        {
          "internalType": "bool",
          "name": "",
          "type": "bool"
        }
      ],
      "payable": false,
      "stateMutability": "nonpayable",
      "type": "function"
    },
    {
      "constant": false,
      "inputs": [
        {
          "internalType": "address",
          "name": "_caller",
          "type": "address"
        }
      ],
      "name": "deAuthorizeCaller",
      "outputs": [
        {
          "internalType": "bool",
          "name": "",
          "type": "bool"
        }
      ],
      "payable": false,
      "stateMutability": "nonpayable",
      "type": "function"
    },
    {
      "constant": false,
      "inputs": [
        {
          "internalType": "address",
          "name": "_userAddress",
          "type": "address"
        }
      ],
      "name": "getUserRole",
      "outputs": [
        {
          "internalType": "string",
          "name": "",
          "type": "string"
        }
      ],
      "payable": false,
      "stateMutability": "nonpayable",
      "type": "function"
    },
    {
      "constant": false,
      "inputs": [
        {
          "internalType": "address",
          "name": "_batchNo",
          "type": "address"
        }
      ],
      "name": "getNextAction",
      "outputs": [
        {
          "internalType": "string",
          "name": "",
          "type": "string"
        }
      ],
      "payable": false,
      "stateMutability": "nonpayable",
      "type": "function"
    },
    {
      "constant": false,
      "inputs": [
        {
          "internalType": "address",
          "name": "_userAddress",
          "type": "address"
        },
        {
          "internalType": "string",
          "name": "_name",
          "type": "string"
        },
        {
          "internalType": "string",
          "name": "_contactNo",
          "type": "string"
        },
        {
          "internalType": "string",
          "name": "_role",
          "type": "string"
        },
        {
          "internalType": "bool",
          "name": "_isActive",
          "type": "bool"
        },
        {
          "internalType": "string",
          "name": "_profileHash",
          "type": "string"
        }
      ],
      "name": "setUser",
      "outputs": [
        {
          "internalType": "bool",
          "name": "",
          "type": "bool"
        }
      ],
      "payable": false,
      "stateMutability": "nonpayable",
      "type": "function"
    },
    {
      "constant": false,
      "inputs": [
        {
          "internalType": "address",
          "name": "_userAddress",
          "type": "address"
        }
      ],
      "name": "getUser",
      "outputs": [
        {
          "internalType": "string",
          "name": "name",
          "type": "string"
        },
        {
          "internalType": "string",
          "name": "contactNo",
          "type": "string"
        },
        {
          "internalType": "string",
          "name": "role",
          "type": "string"
        },
        {
          "internalType": "bool",
          "name": "isActive",
          "type": "bool"
        },
        {
          "internalType": "string",
          "name": "profileHash",
          "type": "string"
        }
      ],
      "payable": false,
      "stateMutability": "nonpayable",
      "type": "function"
    },
    {
      "constant": false,
      "inputs": [
        {
          "internalType": "address",
          "name": "_batchNo",
          "type": "address"
        }
      ],
      "name": "getBasicDetails",
      "outputs": [
        {
          "internalType": "string",
          "name": "registrationNo",
          "type": "string"
        },
        {
          "internalType": "string",
          "name": "farmerName",
          "type": "string"
        },
        {
          "internalType": "string",
          "name": "manufacturerName",
          "type": "string"
        },
        {
          "internalType": "string",
          "name": "distributorName",
          "type": "string"
        },
        {
          "internalType": "string",
          "name": "wholesalerName",
          "type": "string"
        },
        {
          "internalType": "string",
          "name": "retailerName",
          "type": "string"
        }
      ],
      "payable": false,
      "stateMutability": "nonpayable",
      "type": "function"
    },
    {
      "constant": false,
      "inputs": [
        {
          "internalType": "string",
          "name": "_registrationNo",
          "type": "string"
        },
        {
          "internalType": "string",
          "name": "_farmerName",
          "type": "string"
        },
        {
          "internalType": "string",
          "name": "_manufacturerName",
          "type": "string"
        },
        {
          "internalType": "string",
          "name": "_distributorName",
          "type": "string"
        },
        {
          "internalType": "string",
          "name": "_wholesalerName",
          "type": "string"
        },
        {
          "internalType": "string",
          "name": "_retailerName",
          "type": "string"
        }
      ],
      "name": "setBasicDetails",
      "outputs": [
        {
          "internalType": "address",
          "name": "",
          "type": "address"
        }
      ],
      "payable": false,
      "stateMutability": "nonpayable",
      "type": "function"
    },
    {
      "constant": false,
      "inputs": [
        {
          "internalType": "address",
          "name": "batchNo",
          "type": "address"
        },
        {
          "internalType": "string",
          "name": "_farmerID",
          "type": "string"
        },
        {
          "internalType": "string",
          "name": "_cropType",
          "type": "string"
        },
        {
          "internalType": "string",
          "name": "_quantity",
          "type": "string"
        }
      ],
      "name": "setFarmerData",
      "outputs": [
        {
          "internalType": "bool",
          "name": "",
          "type": "bool"
        }
      ],
      "payable": false,
      "stateMutability": "nonpayable",
      "type": "function"
    },
    {
      "constant": false,
      "inputs": [
        {
          "internalType": "address",
          "name": "batchNo",
          "type": "address"
        }
      ],
      "name": "getFarmerData",
      "outputs": [
        {
          "internalType": "string",
          "name": "farmerID",
          "type": "string"
        },
        {
          "internalType": "string",
          "name": "cropType",
          "type": "string"
        },
        {
          "internalType": "string",
          "name": "quantity",
          "type": "string"
        }
      ],
      "payable": false,
      "stateMutability": "nonpayable",
      "type": "function"
    },
    {
      "constant": false,
      "inputs": [
        {
          "internalType": "address",
          "name": "batchNo",
          "type": "address"
        },
        {
          "internalType": "string",
          "name": "_manufacturerID",
          "type": "string"
        },
        {
          "internalType": "string",
          "name": "_cropType",
          "type": "string"
        },
        {
          "internalType": "string",
          "name": "_quantity",
          "type": "string"
        }
      ],
      "name": "setManufacturerData",
      "outputs": [
        {
          "internalType": "bool",
          "name": "",
          "type": "bool"
        }
      ],
      "payable": false,
      "stateMutability": "nonpayable",
      "type": "function"
    },
    {
      "constant": false,
      "inputs": [
        {
          "internalType": "address",
          "name": "batchNo",
          "type": "address"
        }
      ],
      "name": "getManufacturerData",
      "outputs": [
        {
          "internalType": "string",
          "name": "manufacturerID",
          "type": "string"
        },
        {
          "internalType": "string",
          "name": "cropType",
          "type": "string"
        },
        {
          "internalType": "string",
          "name": "quantity",
          "type": "string"
        }
      ],
      "payable": false,
      "stateMutability": "nonpayable",
      "type": "function"
    },
    {
      "constant": false,
      "inputs": [
        {
          "internalType": "address",
          "name": "batchNo",
          "type": "address"
        },
        {
          "internalType": "string",
          "name": "_distributorID",
          "type": "string"
        },
        {
          "internalType": "string",
          "name": "_cropType",
          "type": "string"
        },
        {
          "internalType": "string",
          "name": "_quantity",
          "type": "string"
        }
      ],
      "name": "setDistributorData",
      "outputs": [
        {
          "internalType": "bool",
          "name": "",
          "type": "bool"
        }
      ],
      "payable": false,
      "stateMutability": "nonpayable",
      "type": "function"
    },
    {
      "constant": false,
      "inputs": [
        {
          "internalType": "address",
          "name": "batchNo",
          "type": "address"
        }
      ],
      "name": "getDistributorData",
      "outputs": [
        {
          "internalType": "string",
          "name": "distributorID",
          "type": "string"
        },
        {
          "internalType": "string",
          "name": "cropType",
          "type": "string"
        },
        {
          "internalType": "string",
          "name": "quantity",
          "type": "string"
        }
      ],
      "payable": false,
      "stateMutability": "nonpayable",
      "type": "function"
    },
    {
      "constant": false,
      "inputs": [
        {
          "internalType": "address",
          "name": "batchNo",
          "type": "address"
        },
        {
          "internalType": "string",
          "name": "_wholesalerID",
          "type": "string"
        },
        {
          "internalType": "string",
          "name": "_cropType",
          "type": "string"
        },
        {
          "internalType": "string",
          "name": "_quantity",
          "type": "string"
        }
      ],
      "name": "setWholesalerData",
      "outputs": [
        {
          "internalType": "bool",
          "name": "",
          "type": "bool"
        }
      ],
      "payable": false,
      "stateMutability": "nonpayable",
      "type": "function"
    },
    {
      "constant": false,
      "inputs": [
        {
          "internalType": "address",
          "name": "batchNo",
          "type": "address"
        }
      ],
      "name": "getWholesalerData",
      "outputs": [
        {
          "internalType": "string",
          "name": "wholesalerID",
          "type": "string"
        },
        {
          "internalType": "string",
          "name": "cropType",
          "type": "string"
        },
        {
          "internalType": "string",
          "name": "quantity",
          "type": "string"
        }
      ],
      "payable": false,
      "stateMutability": "nonpayable",
      "type": "function"
    },
    {
      "constant": false,
      "inputs": [
        {
          "internalType": "address",
          "name": "batchNo",
          "type": "address"
        },
        {
          "internalType": "string",
          "name": "_retailerID",
          "type": "string"
        },
        {
          "internalType": "string",
          "name": "_cropType",
          "type": "string"
        },
        {
          "internalType": "string",
          "name": "_quantity",
          "type": "string"
        }
      ],
      "name": "setRetailerData",
      "outputs": [
        {
          "internalType": "bool",
          "name": "",
          "type": "bool"
        }
      ],
      "payable": false,
      "stateMutability": "nonpayable",
      "type": "function"
    },
    {
      "constant": false,
      "inputs": [
        {
          "internalType": "address",
          "name": "batchNo",
          "type": "address"
        }
      ],
      "name": "getRetailerData",
      "outputs": [
        {
          "internalType": "string",
          "name": "retailerID",
          "type": "string"
        },
        {
          "internalType": "string",
          "name": "cropType",
          "type": "string"
        },
        {
          "internalType": "string",
          "name": "quantity",
          "type": "string"
        }
      ],
      "payable": false,
      "stateMutability": "nonpayable",
      "type": "function"
    }
  ],
  "bytecode": "0x608060405234801561001057600080fd5b50336000806101000a81548173ffffffffffffffffffffffffffffffffffffffff021916908373ffffffffffffffffffffffffffffffffffffffff1602179055506001600460003373ffffffffffffffffffffffffffffffffffffffff1673ffffffffffffffffffffffffffffffffffffffff16815260200190815260200160002060006101000a81548160ff021916908360ff1602179055507f8afeca650897be3183b7c0d24eba96a1b990f75c4bd74a0cfb2c0a71aec48e6133604051808273ffffffffffffffffffffffffffffffffffffffff1673ffffffffffffffffffffffffffffffffffffffff16815260200191505060405180910390a161590f806200011d6000396000f3fe608060405234801561001057600080fd5b50600436106101425760003560e01c80634d6b5e00116100b857806386b25f441161007c57806386b25f44146116465780638da5cb5b14611a34578063e2baf47014611a7e578063f2997d7614611c9f578063f2fde38b14611f78578063fb7a20af14611fbc57610142565b80634d6b5e0014610fbd578063548990821461107a5780636a7352d51461129b5780636f77926b14611430578063715018a61461163c57610142565b8063278208511161010a578063278208511461090f5780632c388d5d146109cc578063313e09bc14610a285780633480898b14610c4957806335057b6b14610c935780634b0b4c5f14610e2857610142565b80630e9b8214146101475780630f50749114610368578063161d5c1b146105895780631bcd250a1461071e5780631e92f5fc1461077a575b600080fd5b61034e6004803603608081101561015d57600080fd5b81019080803573ffffffffffffffffffffffffffffffffffffffff1690602001909291908035906020019064010000000081111561019a57600080fd5b8201836020820111156101ac57600080fd5b803590602001918460018302840111640100000000831117156101ce57600080fd5b91908080601f016020809104026020016040519081016040528093929190818152602001838380828437600081840152601f19601f8201169050808301925050505050505091929192908035906020019064010000000081111561023157600080fd5b82018360208201111561024357600080fd5b8035906020019184600183028401116401000000008311171561026557600080fd5b91908080601f016020809104026020016040519081016040528093929190818152602001838380828437600081840152601f19601f820116905080830192505050505050509192919290803590602001906401000000008111156102c857600080fd5b8201836020820111156102da57600080fd5b803590602001918460018302840111640100000000831117156102fc57600080fd5b91908080601f016020809104026020016040519081016040528093929190818152602001838380828437600081840152601f19601f820116905080830192505050505050509192919290505050612280565b604051808215151515815260200191505060405180910390f35b61056f6004803603608081101561037e57600080fd5b81019080803573ffffffffffffffffffffffffffffffffffffffff169060200190929190803590602001906401000000008111156103bb57600080fd5b8201836020820111156103cd57600080fd5b803590602001918460018302840111640100000000831117156103ef57600080fd5b91908080601f016020809104026020016040519081016040528093929190818152602001838380828437600081840152601f19601f8201169050808301925050505050505091929192908035906020019064010000000081111561045257600080fd5b82018360208201111561046457600080fd5b8035906020019184600183028401116401000000008311171561048657600080fd5b91908080601f016020809104026020016040519081016040528093929190818152602001838380828437600081840152601f19601f820116905080830192505050505050509192919290803590602001906401000000008111156104e957600080fd5b8201836020820111156104fb57600080fd5b8035906020019184600183028401116401000000008311171561051d57600080fd5b91908080601f016020809104026020016040519081016040528093929190818152602001838380828437600081840152601f19601f8201169050808301925050505050505091929192905050506124be565b604051808215151515815260200191505060405180910390f35b6105cb6004803603602081101561059f57600080fd5b81019080803573ffffffffffffffffffffffffffffffffffffffff1690602001909291905050506126fc565b60405180806020018060200180602001848103845287818151815260200191508051906020019080838360005b838110156106135780820151818401526020810190506105f8565b50505050905090810190601f1680156106405780820380516001836020036101000a031916815260200191505b50848103835286818151815260200191508051906020019080838360005b8381101561067957808201518184015260208101905061065e565b50505050905090810190601f1680156106a65780820380516001836020036101000a031916815260200191505b50848103825285818151815260200191508051906020019080838360005b838110156106df5780820151818401526020810190506106c4565b50505050905090810190601f16801561070c5780820380516001836020036101000a031916815260200191505b50965050505050505060405180910390f35b6107606004803603602081101561073457600080fd5b81019080803573ffffffffffffffffffffffffffffffffffffffff1690602001909291905050506129fe565b604051808215151515815260200191505060405180910390f35b6107bc6004803603602081101561079057600080fd5b81019080803573ffffffffffffffffffffffffffffffffffffffff169060200190929190505050612b1e565b60405180806020018060200180602001848103845287818151815260200191508051906020019080838360005b838110156108045780820151818401526020810190506107e9565b50505050905090810190601f1680156108315780820380516001836020036101000a031916815260200191505b50848103835286818151815260200191508051906020019080838360005b8381101561086a57808201518184015260208101905061084f565b50505050905090810190601f1680156108975780820380516001836020036101000a031916815260200191505b50848103825285818151815260200191508051906020019080838360005b838110156108d05780820151818401526020810190506108b5565b50505050905090810190601f1680156108fd5780820380516001836020036101000a031916815260200191505b50965050505050505060405180910390f35b6109516004803603602081101561092557600080fd5b81019080803573ffffffffffffffffffffffffffffffffffffffff169060200190929190505050612e20565b6040518080602001828103825283818151815260200191508051906020019080838360005b83811015610991578082015181840152602081019050610976565b50505050905090810190601f1680156109be5780820380516001836020036101000a031916815260200191505b509250505060405180910390f35b610a0e600480360360208110156109e257600080fd5b81019080803573ffffffffffffffffffffffffffffffffffffffff169060200190929190505050612f9e565b604051808215151515815260200191505060405180910390f35b610c2f60048036036080811015610a3e57600080fd5b81019080803573ffffffffffffffffffffffffffffffffffffffff16906020019092919080359060200190640100000000811115610a7b57600080fd5b820183602082011115610a8d57600080fd5b80359060200191846001830284011164010000000083111715610aaf57600080fd5b91908080601f016020809104026020016040519081016040528093929190818152602001838380828437600081840152601f19601f82011690508083019250505050505050919291929080359060200190640100000000811115610b1257600080fd5b820183602082011115610b2457600080fd5b80359060200191846001830284011164010000000083111715610b4657600080fd5b91908080601f016020809104026020016040519081016040528093929190818152602001838380828437600081840152601f19601f82011690508083019250505050505050919291929080359060200190640100000000811115610ba957600080fd5b820183602082011115610bbb57600080fd5b80359060200191846001830284011164010000000083111715610bdd57600080fd5b91908080601f016020809104026020016040519081016040528093929190818152602001838380828437600081840152601f19601f8201169050808301925050505050505091929192905050506130be565b604051808215151515815260200191505060405180910390f35b610c516132fc565b604051808273ffffffffffffffffffffffffffffffffffffffff1673ffffffffffffffffffffffffffffffffffffffff16815260200191505060405180910390f35b610cd560048036036020811015610ca957600080fd5b81019080803573ffffffffffffffffffffffffffffffffffffffff169060200190929190505050613322565b60405180806020018060200180602001848103845287818151815260200191508051906020019080838360005b83811015610d1d578082015181840152602081019050610d02565b50505050905090810190601f168015610d4a5780820380516001836020036101000a031916815260200191505b50848103835286818151815260200191508051906020019080838360005b83811015610d83578082015181840152602081019050610d68565b50505050905090810190601f168015610db05780820380516001836020036101000a031916815260200191505b50848103825285818151815260200191508051906020019080838360005b83811015610de9578082015181840152602081019050610dce565b50505050905090810190601f168015610e165780820380516001836020036101000a031916815260200191505b50965050505050505060405180910390f35b610e6a60048036036020811015610e3e57600080fd5b81019080803573ffffffffffffffffffffffffffffffffffffffff169060200190929190505050613624565b60405180806020018060200180602001848103845287818151815260200191508051906020019080838360005b83811015610eb2578082015181840152602081019050610e97565b50505050905090810190601f168015610edf5780820380516001836020036101000a031916815260200191505b50848103835286818151815260200191508051906020019080838360005b83811015610f18578082015181840152602081019050610efd565b50505050905090810190601f168015610f455780820380516001836020036101000a031916815260200191505b50848103825285818151815260200191508051906020019080838360005b83811015610f7e578082015181840152602081019050610f63565b50505050905090810190601f168015610fab5780820380516001836020036101000a031916815260200191505b50965050505050505060405180910390f35b610fff60048036036020811015610fd357600080fd5b81019080803573ffffffffffffffffffffffffffffffffffffffff169060200190929190505050613926565b6040518080602001828103825283818151815260200191508051906020019080838360005b8381101561103f578082015181840152602081019050611024565b50505050905090810190601f16801561106c5780820380516001836020036101000a031916815260200191505b509250505060405180910390f35b6112816004803603608081101561109057600080fd5b81019080803573ffffffffffffffffffffffffffffffffffffffff169060200190929190803590602001906401000000008111156110cd57600080fd5b8201836020820111156110df57600080fd5b8035906020019184600183028401116401000000008311171561110157600080fd5b91908080601f016020809104026020016040519081016040528093929190818152602001838380828437600081840152601f19601f8201169050808301925050505050505091929192908035906020019064010000000081111561116457600080fd5b82018360208201111561117657600080fd5b8035906020019184600183028401116401000000008311171561119857600080fd5b91908080601f016020809104026020016040519081016040528093929190818152602001838380828437600081840152601f19601f820116905080830192505050505050509192919290803590602001906401000000008111156111fb57600080fd5b82018360208201111561120d57600080fd5b8035906020019184600183028401116401000000008311171561122f57600080fd5b91908080601f016020809104026020016040519081016040528093929190818152602001838380828437600081840152601f19601f820116905080830192505050505050509192919290505050613aa4565b604051808215151515815260200191505060405180910390f35b6112dd600480360360208110156112b157600080fd5b81019080803573ffffffffffffffffffffffffffffffffffffffff169060200190929190505050613ce2565b60405180806020018060200180602001848103845287818151815260200191508051906020019080838360005b8381101561132557808201518184015260208101905061130a565b50505050905090810190601f1680156113525780820380516001836020036101000a031916815260200191505b50848103835286818151815260200191508051906020019080838360005b8381101561138b578082015181840152602081019050611370565b50505050905090810190601f1680156113b85780820380516001836020036101000a031916815260200191505b50848103825285818151815260200191508051906020019080838360005b838110156113f15780820151818401526020810190506113d6565b50505050905090810190601f16801561141e5780820380516001836020036101000a031916815260200191505b50965050505050505060405180910390f35b6114726004803603602081101561144657600080fd5b81019080803573ffffffffffffffffffffffffffffffffffffffff169060200190929190505050613fe4565b60405180806020018060200180602001861515151581526020018060200185810385528a818151815260200191508051906020019080838360005b838110156114c85780820151818401526020810190506114ad565b50505050905090810190601f1680156114f55780820380516001836020036101000a031916815260200191505b50858103845289818151815260200191508051906020019080838360005b8381101561152e578082015181840152602081019050611513565b50505050905090810190601f16801561155b5780820380516001836020036101000a031916815260200191505b50858103835288818151815260200191508051906020019080838360005b83811015611594578082015181840152602081019050611579565b50505050905090810190601f1680156115c15780820380516001836020036101000a031916815260200191505b50858103825286818151815260200191508051906020019080838360005b838110156115fa5780820151818401526020810190506115df565b50505050905090810190601f1680156116275780820380516001836020036101000a031916815260200191505b50995050505050505050505060405180910390f35b6116446143eb565b005b6119f2600480360360c081101561165c57600080fd5b810190808035906020019064010000000081111561167957600080fd5b82018360208201111561168b57600080fd5b803590602001918460018302840111640100000000831117156116ad57600080fd5b91908080601f016020809104026020016040519081016040528093929190818152602001838380828437600081840152601f19601f8201169050808301925050505050505091929192908035906020019064010000000081111561171057600080fd5b82018360208201111561172257600080fd5b8035906020019184600183028401116401000000008311171561174457600080fd5b91908080601f016020809104026020016040519081016040528093929190818152602001838380828437600081840152601f19601f820116905080830192505050505050509192919290803590602001906401000000008111156117a757600080fd5b8201836020820111156117b957600080fd5b803590602001918460018302840111640100000000831117156117db57600080fd5b91908080601f016020809104026020016040519081016040528093929190818152602001838380828437600081840152601f19601f8201169050808301925050505050505091929192908035906020019064010000000081111561183e57600080fd5b82018360208201111561185057600080fd5b8035906020019184600183028401116401000000008311171561187257600080fd5b91908080601f016020809104026020016040519081016040528093929190818152602001838380828437600081840152601f19601f820116905080830192505050505050509192919290803590602001906401000000008111156118d557600080fd5b8201836020820111156118e757600080fd5b8035906020019184600183028401116401000000008311171561190957600080fd5b91908080601f016020809104026020016040519081016040528093929190818152602001838380828437600081840152601f19601f8201169050808301925050505050505091929192908035906020019064010000000081111561196c57600080fd5b82018360208201111561197e57600080fd5b803590602001918460018302840111640100000000831117156119a057600080fd5b91908080601f016020809104026020016040519081016040528093929190818152602001838380828437600081840152601f19601f8201169050808301925050505050505091929192905050506144eb565b604051808273ffffffffffffffffffffffffffffffffffffffff1673ffffffffffffffffffffffffffffffffffffffff16815260200191505060405180910390f35b611a3c6148bf565b604051808273ffffffffffffffffffffffffffffffffffffffff1673ffffffffffffffffffffffffffffffffffffffff16815260200191505060405180910390f35b611c8560048036036080811015611a9457600080fd5b81019080803573ffffffffffffffffffffffffffffffffffffffff16906020019092919080359060200190640100000000811115611ad157600080fd5b820183602082011115611ae357600080fd5b80359060200191846001830284011164010000000083111715611b0557600080fd5b91908080601f016020809104026020016040519081016040528093929190818152602001838380828437600081840152601f19601f82011690508083019250505050505050919291929080359060200190640100000000811115611b6857600080fd5b820183602082011115611b7a57600080fd5b80359060200191846001830284011164010000000083111715611b9c57600080fd5b91908080601f016020809104026020016040519081016040528093929190818152602001838380828437600081840152601f19601f82011690508083019250505050505050919291929080359060200190640100000000811115611bff57600080fd5b820183602082011115611c1157600080fd5b80359060200191846001830284011164010000000083111715611c3357600080fd5b91908080601f016020809104026020016040519081016040528093929190818152602001838380828437600081840152601f19601f8201169050808301925050505050505091929192905050506148e4565b604051808215151515815260200191505060405180910390f35b611ce160048036036020811015611cb557600080fd5b81019080803573ffffffffffffffffffffffffffffffffffffffff169060200190929190505050614b22565b6040518080602001806020018060200180602001806020018060200187810387528d818151815260200191508051906020019080838360005b83811015611d35578082015181840152602081019050611d1a565b50505050905090810190601f168015611d625780820380516001836020036101000a031916815260200191505b5087810386528c818151815260200191508051906020019080838360005b83811015611d9b578082015181840152602081019050611d80565b50505050905090810190601f168015611dc85780820380516001836020036101000a031916815260200191505b5087810385528b818151815260200191508051906020019080838360005b83811015611e01578082015181840152602081019050611de6565b50505050905090810190601f168015611e2e5780820380516001836020036101000a031916815260200191505b5087810384528a818151815260200191508051906020019080838360005b83811015611e67578082015181840152602081019050611e4c565b50505050905090810190601f168015611e945780820380516001836020036101000a031916815260200191505b50878103835289818151815260200191508051906020019080838360005b83811015611ecd578082015181840152602081019050611eb2565b50505050905090810190601f168015611efa5780820380516001836020036101000a031916815260200191505b50878103825288818151815260200191508051906020019080838360005b83811015611f33578082015181840152602081019050611f18565b50505050905090810190601f168015611f605780820380516001836020036101000a031916815260200191505b509c5050505050505050505050505060405180910390f35b611fba60048036036020811015611f8e57600080fd5b81019080803573ffffffffffffffffffffffffffffffffffffffff169060200190929190505050615303565b005b612266600480360360c0811015611fd257600080fd5b81019080803573ffffffffffffffffffffffffffffffffffffffff1690602001909291908035906020019064010000000081111561200f57600080fd5b82018360208201111561202157600080fd5b8035906020019184600183028401116401000000008311171561204357600080fd5b91908080601f016020809104026020016040519081016040528093929190818152602001838380828437600081840152601f19601f820116905080830192505050505050509192919290803590602001906401000000008111156120a657600080fd5b8201836020820111156120b857600080fd5b803590602001918460018302840111640100000000831117156120da57600080fd5b91908080601f016020809104026020016040519081016040528093929190818152602001838380828437600081840152601f19601f8201169050808301925050505050505091929192908035906020019064010000000081111561213d57600080fd5b82018360208201111561214f57600080fd5b8035906020019184600183028401116401000000008311171561217157600080fd5b91908080601f016020809104026020016040519081016040528093929190818152602001838380828437600081840152601f19601f820116905080830192505050505050509192919290803515159060200190929190803590602001906401000000008111156121e057600080fd5b8201836020820111156121f257600080fd5b8035906020019184600183028401116401000000008311171561221457600080fd5b91908080601f016020809104026020016040519081016040528093929190818152602001838380828437600081840152601f19601f820116905080830192505050505050509192919290505050615454565b604051808215151515815260200191505060405180910390f35b600033600160006101000a81548173ffffffffffffffffffffffffffffffffffffffff021916908373ffffffffffffffffffffffffffffffffffffffff1602179055506001600460003373ffffffffffffffffffffffffffffffffffffffff1673ffffffffffffffffffffffffffffffffffffffff16815260200190815260200160002060009054906101000a900460ff1660ff161461231f57600080fd5b83602260000190805190602001906123389291906156a9565b5082602260010190805190602001906123529291906156a9565b50816022600201908051906020019061236c9291906156a9565b506022600a60008773ffffffffffffffffffffffffffffffffffffffff1673ffffffffffffffffffffffffffffffffffffffff168152602001908152602001600020600082018160000190805460018160011615610100020316600290046123d5929190615729565b50600182018160010190805460018160011615610100020316600290046123fd929190615729565b5060028201816002019080546001816001161561010002031660029004612425929190615729565b509050506040518060400160405280600881526020017f435553544f4d4552000000000000000000000000000000000000000000000000815250600b60008773ffffffffffffffffffffffffffffffffffffffff1673ffffffffffffffffffffffffffffffffffffffff16815260200190815260200160002090805190602001906124b19291906156a9565b5060019050949350505050565b600033600160006101000a81548173ffffffffffffffffffffffffffffffffffffffff021916908373ffffffffffffffffffffffffffffffffffffffff1602179055506001600460003373ffffffffffffffffffffffffffffffffffffffff1673ffffffffffffffffffffffffffffffffffffffff16815260200190815260200160002060009054906101000a900460ff1660ff161461255d57600080fd5b83601960000190805190602001906125769291906156a9565b5082601960010190805190602001906125909291906156a9565b5081601960020190805190602001906125aa9291906156a9565b506019600760008773ffffffffffffffffffffffffffffffffffffffff1673ffffffffffffffffffffffffffffffffffffffff16815260200190815260200160002060008201816000019080546001816001161561010002031660029004612613929190615729565b506001820181600101908054600181600116156101000203166002900461263b929190615729565b5060028201816002019080546001816001161561010002031660029004612663929190615729565b509050506040518060400160405280600b81526020017f4449535452494255544f52000000000000000000000000000000000000000000815250600b60008773ffffffffffffffffffffffffffffffffffffffff1673ffffffffffffffffffffffffffffffffffffffff16815260200190815260200160002090805190602001906126ef9291906156a9565b5060019050949350505050565b606080606033600160006101000a81548173ffffffffffffffffffffffffffffffffffffffff021916908373ffffffffffffffffffffffffffffffffffffffff1602179055506001600460003373ffffffffffffffffffffffffffffffffffffffff1673ffffffffffffffffffffffffffffffffffffffff16815260200190815260200160002060009054906101000a900460ff1660ff161461279e57600080fd5b6127a66157b0565b600860008673ffffffffffffffffffffffffffffffffffffffff1673ffffffffffffffffffffffffffffffffffffffff168152602001908152602001600020604051806060016040529081600082018054600181600116156101000203166002900480601f0160208091040260200160405190810160405280929190818152602001828054600181600116156101000203166002900480156128895780601f1061285e57610100808354040283529160200191612889565b820191906000526020600020905b81548152906001019060200180831161286c57829003601f168201915b50505050508152602001600182018054600181600116156101000203166002900480601f01602080910402602001604051908101604052809291908181526020018280546001816001161561010002031660029004801561292b5780601f106129005761010080835404028352916020019161292b565b820191906000526020600020905b81548152906001019060200180831161290e57829003601f168201915b50505050508152602001600282018054600181600116156101000203166002900480601f0160208091040260200160405190810160405280929190818152602001828054600181600116156101000203166002900480156129cd5780601f106129a2576101008083540402835291602001916129cd565b820191906000526020600020905b8154815290600101906020018083116129b057829003601f168201915b5050505050815250509050806000015181602001518260400151829250819150809050935093509350509193909250565b60008060009054906101000a900473ffffffffffffffffffffffffffffffffffffffff1673ffffffffffffffffffffffffffffffffffffffff163373ffffffffffffffffffffffffffffffffffffffff1614612a5957600080fd5b6000600460008473ffffffffffffffffffffffffffffffffffffffff1673ffffffffffffffffffffffffffffffffffffffff16815260200190815260200160002060006101000a81548160ff021916908360ff1602179055507f9e8ca6ff03906e81e8a6a03d4f96b7edb0b97f0ed9d07ef1b699fff63438549682604051808273ffffffffffffffffffffffffffffffffffffffff1673ffffffffffffffffffffffffffffffffffffffff16815260200191505060405180910390a160019050919050565b606080606033600160006101000a81548173ffffffffffffffffffffffffffffffffffffffff021916908373ffffffffffffffffffffffffffffffffffffffff1602179055506001600460003373ffffffffffffffffffffffffffffffffffffffff1673ffffffffffffffffffffffffffffffffffffffff16815260200190815260200160002060009054906101000a900460ff1660ff1614612bc057600080fd5b612bc86157d1565b600960008673ffffffffffffffffffffffffffffffffffffffff1673ffffffffffffffffffffffffffffffffffffffff168152602001908152602001600020604051806060016040529081600082018054600181600116156101000203166002900480601f016020809104026020016040519081016040528092919081815260200182805460018160011615610100020316600290048015612cab5780601f10612c8057610100808354040283529160200191612cab565b820191906000526020600020905b815481529060010190602001808311612c8e57829003601f168201915b50505050508152602001600182018054600181600116156101000203166002900480601f016020809104026020016040519081016040528092919081815260200182805460018160011615610100020316600290048015612d4d5780601f10612d2257610100808354040283529160200191612d4d565b820191906000526020600020905b815481529060010190602001808311612d3057829003601f168201915b50505050508152602001600282018054600181600116156101000203166002900480601f016020809104026020016040519081016040528092919081815260200182805460018160011615610100020316600290048015612def5780601f10612dc457610100808354040283529160200191612def565b820191906000526020600020905b815481529060010190602001808311612dd257829003601f168201915b5050505050815250509050806000015181602001518260400151829250819150809050935093509350509193909250565b606033600160006101000a81548173ffffffffffffffffffffffffffffffffffffffff021916908373ffffffffffffffffffffffffffffffffffffffff1602179055506001600460003373ffffffffffffffffffffffffffffffffffffffff1673ffffffffffffffffffffffffffffffffffffffff16815260200190815260200160002060009054906101000a900460ff1660ff1614612ebf57600080fd5b600360008373ffffffffffffffffffffffffffffffffffffffff1673ffffffffffffffffffffffffffffffffffffffff1681526020019081526020016000208054600181600116156101000203166002900480601f016020809104026020016040519081016040528092919081815260200182805460018160011615610100020316600290048015612f925780601f10612f6757610100808354040283529160200191612f92565b820191906000526020600020905b815481529060010190602001808311612f7557829003601f168201915b50505050509050919050565b60008060009054906101000a900473ffffffffffffffffffffffffffffffffffffffff1673ffffffffffffffffffffffffffffffffffffffff163373ffffffffffffffffffffffffffffffffffffffff1614612ff957600080fd5b6001600460008473ffffffffffffffffffffffffffffffffffffffff1673ffffffffffffffffffffffffffffffffffffffff16815260200190815260200160002060006101000a81548160ff021916908360ff1602179055507f8afeca650897be3183b7c0d24eba96a1b990f75c4bd74a0cfb2c0a71aec48e6182604051808273ffffffffffffffffffffffffffffffffffffffff1673ffffffffffffffffffffffffffffffffffffffff16815260200191505060405180910390a160019050919050565b600033600160006101000a81548173ffffffffffffffffffffffffffffffffffffffff021916908373ffffffffffffffffffffffffffffffffffffffff1602179055506001600460003373ffffffffffffffffffffffffffffffffffffffff1673ffffffffffffffffffffffffffffffffffffffff16815260200190815260200160002060009054906101000a900460ff1660ff161461315d57600080fd5b83601c60000190805190602001906131769291906156a9565b5082601c60010190805190602001906131909291906156a9565b5081601c60020190805190602001906131aa9291906156a9565b50601c600860008773ffffffffffffffffffffffffffffffffffffffff1673ffffffffffffffffffffffffffffffffffffffff16815260200190815260200160002060008201816000019080546001816001161561010002031660029004613213929190615729565b506001820181600101908054600181600116156101000203166002900461323b929190615729565b5060028201816002019080546001816001161561010002031660029004613263929190615729565b509050506040518060400160405280600a81526020017f57484f4c4553414c455200000000000000000000000000000000000000000000815250600b60008773ffffffffffffffffffffffffffffffffffffffff1673ffffffffffffffffffffffffffffffffffffffff16815260200190815260200160002090805190602001906132ef9291906156a9565b5060019050949350505050565b600160009054906101000a900473ffffffffffffffffffffffffffffffffffffffff1681565b606080606033600160006101000a81548173ffffffffffffffffffffffffffffffffffffffff021916908373ffffffffffffffffffffffffffffffffffffffff1602179055506001600460003373ffffffffffffffffffffffffffffffffffffffff1673ffffffffffffffffffffffffffffffffffffffff16815260200190815260200160002060009054906101000a900460ff1660ff16146133c457600080fd5b6133cc6157f2565b600760008673ffffffffffffffffffffffffffffffffffffffff1673ffffffffffffffffffffffffffffffffffffffff168152602001908152602001600020604051806060016040529081600082018054600181600116156101000203166002900480601f0160208091040260200160405190810160405280929190818152602001828054600181600116156101000203166002900480156134af5780601f10613484576101008083540402835291602001916134af565b820191906000526020600020905b81548152906001019060200180831161349257829003601f168201915b50505050508152602001600182018054600181600116156101000203166002900480601f0160208091040260200160405190810160405280929190818152602001828054600181600116156101000203166002900480156135515780601f1061352657610100808354040283529160200191613551565b820191906000526020600020905b81548152906001019060200180831161353457829003601f168201915b50505050508152602001600282018054600181600116156101000203166002900480601f0160208091040260200160405190810160405280929190818152602001828054600181600116156101000203166002900480156135f35780601f106135c8576101008083540402835291602001916135f3565b820191906000526020600020905b8154815290600101906020018083116135d657829003601f168201915b5050505050815250509050806000015181602001518260400151829250819150809050935093509350509193909250565b606080606033600160006101000a81548173ffffffffffffffffffffffffffffffffffffffff021916908373ffffffffffffffffffffffffffffffffffffffff1602179055506001600460003373ffffffffffffffffffffffffffffffffffffffff1673ffffffffffffffffffffffffffffffffffffffff16815260200190815260200160002060009054906101000a900460ff1660ff16146136c657600080fd5b6136ce615813565b600660008673ffffffffffffffffffffffffffffffffffffffff1673ffffffffffffffffffffffffffffffffffffffff168152602001908152602001600020604051806060016040529081600082018054600181600116156101000203166002900480601f0160208091040260200160405190810160405280929190818152602001828054600181600116156101000203166002900480156137b15780601f10613786576101008083540402835291602001916137b1565b820191906000526020600020905b81548152906001019060200180831161379457829003601f168201915b50505050508152602001600182018054600181600116156101000203166002900480601f0160208091040260200160405190810160405280929190818152602001828054600181600116156101000203166002900480156138535780601f1061382857610100808354040283529160200191613853565b820191906000526020600020905b81548152906001019060200180831161383657829003601f168201915b50505050508152602001600282018054600181600116156101000203166002900480601f0160208091040260200160405190810160405280929190818152602001828054600181600116156101000203166002900480156138f55780601f106138ca576101008083540402835291602001916138f5565b820191906000526020600020905b8154815290600101906020018083116138d857829003601f168201915b5050505050815250509050806000015181602001518260400151829250819150809050935093509350509193909250565b606033600160006101000a81548173ffffffffffffffffffffffffffffffffffffffff021916908373ffffffffffffffffffffffffffffffffffffffff1602179055506001600460003373ffffffffffffffffffffffffffffffffffffffff1673ffffffffffffffffffffffffffffffffffffffff16815260200190815260200160002060009054906101000a900460ff1660ff16146139c557600080fd5b600b60008373ffffffffffffffffffffffffffffffffffffffff1673ffffffffffffffffffffffffffffffffffffffff1681526020019081526020016000208054600181600116156101000203166002900480601f016020809104026020016040519081016040528092919081815260200182805460018160011615610100020316600290048015613a985780601f10613a6d57610100808354040283529160200191613a98565b820191906000526020600020905b815481529060010190602001808311613a7b57829003601f168201915b50505050509050919050565b600033600160006101000a81548173ffffffffffffffffffffffffffffffffffffffff021916908373ffffffffffffffffffffffffffffffffffffffff1602179055506001600460003373ffffffffffffffffffffffffffffffffffffffff1673ffffffffffffffffffffffffffffffffffffffff16815260200190815260200160002060009054906101000a900460ff1660ff1614613b4357600080fd5b8360166000019080519060200190613b5c9291906156a9565b508260166001019080519060200190613b769291906156a9565b508160166002019080519060200190613b909291906156a9565b506016600660008773ffffffffffffffffffffffffffffffffffffffff1673ffffffffffffffffffffffffffffffffffffffff16815260200190815260200160002060008201816000019080546001816001161561010002031660029004613bf9929190615729565b5060018201816001019080546001816001161561010002031660029004613c21929190615729565b5060028201816002019080546001816001161561010002031660029004613c49929190615729565b509050506040518060400160405280600c81526020017f4d414e5546414354555245520000000000000000000000000000000000000000815250600b60008773ffffffffffffffffffffffffffffffffffffffff1673ffffffffffffffffffffffffffffffffffffffff1681526020019081526020016000209080519060200190613cd59291906156a9565b5060019050949350505050565b606080606033600160006101000a81548173ffffffffffffffffffffffffffffffffffffffff021916908373ffffffffffffffffffffffffffffffffffffffff1602179055506001600460003373ffffffffffffffffffffffffffffffffffffffff1673ffffffffffffffffffffffffffffffffffffffff16815260200190815260200160002060009054906101000a900460ff1660ff1614613d8457600080fd5b613d8c615834565b600a60008673ffffffffffffffffffffffffffffffffffffffff1673ffffffffffffffffffffffffffffffffffffffff168152602001908152602001600020604051806060016040529081600082018054600181600116156101000203166002900480601f016020809104026020016040519081016040528092919081815260200182805460018160011615610100020316600290048015613e6f5780601f10613e4457610100808354040283529160200191613e6f565b820191906000526020600020905b815481529060010190602001808311613e5257829003601f168201915b50505050508152602001600182018054600181600116156101000203166002900480601f016020809104026020016040519081016040528092919081815260200182805460018160011615610100020316600290048015613f115780601f10613ee657610100808354040283529160200191613f11565b820191906000526020600020905b815481529060010190602001808311613ef457829003601f168201915b50505050508152602001600282018054600181600116156101000203166002900480601f016020809104026020016040519081016040528092919081815260200182805460018160011615610100020316600290048015613fb35780601f10613f8857610100808354040283529160200191613fb3565b820191906000526020600020905b815481529060010190602001808311613f9657829003601f168201915b5050505050815250509050806000015181602001518260400151829250819150809050935093509350509193909250565b60608060606000606033600160006101000a81548173ffffffffffffffffffffffffffffffffffffffff021916908373ffffffffffffffffffffffffffffffffffffffff1602179055506001600460003373ffffffffffffffffffffffffffffffffffffffff1673ffffffffffffffffffffffffffffffffffffffff16815260200190815260200160002060009054906101000a900460ff1660ff161461408a57600080fd5b614092615855565b600260008873ffffffffffffffffffffffffffffffffffffffff1673ffffffffffffffffffffffffffffffffffffffff168152602001908152602001600020604051806080016040529081600082018054600181600116156101000203166002900480601f0160208091040260200160405190810160405280929190818152602001828054600181600116156101000203166002900480156141755780601f1061414a57610100808354040283529160200191614175565b820191906000526020600020905b81548152906001019060200180831161415857829003601f168201915b50505050508152602001600182018054600181600116156101000203166002900480601f0160208091040260200160405190810160405280929190818152602001828054600181600116156101000203166002900480156142175780601f106141ec57610100808354040283529160200191614217565b820191906000526020600020905b8154815290600101906020018083116141fa57829003601f168201915b505050505081526020016002820160009054906101000a900460ff16151515158152602001600382018054600181600116156101000203166002900480601f0160208091040260200160405190810160405280929190818152602001828054600181600116156101000203166002900480156142d45780601f106142a9576101008083540402835291602001916142d4565b820191906000526020600020905b8154815290600101906020018083116142b757829003601f168201915b505050505081525050905080600001518160200151600360008a73ffffffffffffffffffffffffffffffffffffffff1673ffffffffffffffffffffffffffffffffffffffff16815260200190815260200160002083604001518460600151849450839350828054600181600116156101000203166002900480601f0160208091040260200160405190810160405280929190818152602001828054600181600116156101000203166002900480156143cd5780601f106143a2576101008083540402835291602001916143cd565b820191906000526020600020905b8154815290600101906020018083116143b057829003601f168201915b50505050509250809050955095509550955095505091939590929450565b6000809054906101000a900473ffffffffffffffffffffffffffffffffffffffff1673ffffffffffffffffffffffffffffffffffffffff163373ffffffffffffffffffffffffffffffffffffffff161461444457600080fd5b6000809054906101000a900473ffffffffffffffffffffffffffffffffffffffff1673ffffffffffffffffffffffffffffffffffffffff167ff8df31144d9c2f0f6b59d69b8b98abd5459d07f2742c4df920b25aae33c6482060405160405180910390a260008060006101000a81548173ffffffffffffffffffffffffffffffffffffffff021916908373ffffffffffffffffffffffffffffffffffffffff160217905550565b600033600160006101000a81548173ffffffffffffffffffffffffffffffffffffffff021916908373ffffffffffffffffffffffffffffffffffffffff1602179055506001600460003373ffffffffffffffffffffffffffffffffffffffff1673ffffffffffffffffffffffffffffffffffffffff16815260200190815260200160002060009054906101000a900460ff1660ff161461458a57600080fd5b60003342604051602001808373ffffffffffffffffffffffffffffffffffffffff1673ffffffffffffffffffffffffffffffffffffffff1660601b8152601401828152602001925050506040516020818303038152906040528051906020012060001c90506000819050886010600001908051906020019061460d9291906156a9565b5087601060010190805190602001906146279291906156a9565b5086601060020190805190602001906146419291906156a9565b50856010600301908051906020019061465b9291906156a9565b5084601060040190805190602001906146759291906156a9565b50836010600501908051906020019061468f9291906156a9565b506010600560008373ffffffffffffffffffffffffffffffffffffffff1673ffffffffffffffffffffffffffffffffffffffff168152602001908152602001600020600082018160000190805460018160011615610100020316600290046146f8929190615729565b5060018201816001019080546001816001161561010002031660029004614720929190615729565b5060028201816002019080546001816001161561010002031660029004614748929190615729565b5060038201816003019080546001816001161561010002031660029004614770929190615729565b5060048201816004019080546001816001161561010002031660029004614798929190615729565b50600582018160050190805460018160011615610100020316600290046147c0929190615729565b509050506040518060400160405280600f81526020017f4641524d5f494e5350454354494f4e0000000000000000000000000000000000815250600b60008373ffffffffffffffffffffffffffffffffffffffff1673ffffffffffffffffffffffffffffffffffffffff168152602001908152602001600020908051906020019061484c9291906156a9565b507f7b39612bc76c4c5905411a4d502b6c37c620b4979ac84cbc5219998dc1322c9781604051808273ffffffffffffffffffffffffffffffffffffffff1673ffffffffffffffffffffffffffffffffffffffff16815260200191505060405180910390a180925050509695505050505050565b6000809054906101000a900473ffffffffffffffffffffffffffffffffffffffff1681565b600033600160006101000a81548173ffffffffffffffffffffffffffffffffffffffff021916908373ffffffffffffffffffffffffffffffffffffffff1602179055506001600460003373ffffffffffffffffffffffffffffffffffffffff1673ffffffffffffffffffffffffffffffffffffffff16815260200190815260200160002060009054906101000a900460ff1660ff161461498357600080fd5b83601f600001908051906020019061499c9291906156a9565b5082601f60010190805190602001906149b69291906156a9565b5081601f60020190805190602001906149d09291906156a9565b50601f600960008773ffffffffffffffffffffffffffffffffffffffff1673ffffffffffffffffffffffffffffffffffffffff16815260200190815260200160002060008201816000019080546001816001161561010002031660029004614a39929190615729565b5060018201816001019080546001816001161561010002031660029004614a61929190615729565b5060028201816002019080546001816001161561010002031660029004614a89929190615729565b509050506040518060400160405280600881526020017f52455441494c4552000000000000000000000000000000000000000000000000815250600b60008773ffffffffffffffffffffffffffffffffffffffff1673ffffffffffffffffffffffffffffffffffffffff1681526020019081526020016000209080519060200190614b159291906156a9565b5060019050949350505050565b60608060608060608033600160006101000a81548173ffffffffffffffffffffffffffffffffffffffff021916908373ffffffffffffffffffffffffffffffffffffffff1602179055506001600460003373ffffffffffffffffffffffffffffffffffffffff1673ffffffffffffffffffffffffffffffffffffffff16815260200190815260200160002060009054906101000a900460ff1660ff1614614bc857600080fd5b614bd061587f565b600560008973ffffffffffffffffffffffffffffffffffffffff1673ffffffffffffffffffffffffffffffffffffffff1681526020019081526020016000206040518060c0016040529081600082018054600181600116156101000203166002900480601f016020809104026020016040519081016040528092919081815260200182805460018160011615610100020316600290048015614cb35780601f10614c8857610100808354040283529160200191614cb3565b820191906000526020600020905b815481529060010190602001808311614c9657829003601f168201915b50505050508152602001600182018054600181600116156101000203166002900480601f016020809104026020016040519081016040528092919081815260200182805460018160011615610100020316600290048015614d555780601f10614d2a57610100808354040283529160200191614d55565b820191906000526020600020905b815481529060010190602001808311614d3857829003601f168201915b50505050508152602001600282018054600181600116156101000203166002900480601f016020809104026020016040519081016040528092919081815260200182805460018160011615610100020316600290048015614df75780601f10614dcc57610100808354040283529160200191614df7565b820191906000526020600020905b815481529060010190602001808311614dda57829003601f168201915b50505050508152602001600382018054600181600116156101000203166002900480601f016020809104026020016040519081016040528092919081815260200182805460018160011615610100020316600290048015614e995780601f10614e6e57610100808354040283529160200191614e99565b820191906000526020600020905b815481529060010190602001808311614e7c57829003601f168201915b50505050508152602001600482018054600181600116156101000203166002900480601f016020809104026020016040519081016040528092919081815260200182805460018160011615610100020316600290048015614f3b5780601f10614f1057610100808354040283529160200191614f3b565b820191906000526020600020905b815481529060010190602001808311614f1e57829003601f168201915b50505050508152602001600582018054600181600116156101000203166002900480601f016020809104026020016040519081016040528092919081815260200182805460018160011615610100020316600290048015614fdd5780601f10614fb257610100808354040283529160200191614fdd565b820191906000526020600020905b815481529060010190602001808311614fc057829003601f168201915b50505050508152505090507f0a6888ab60ae38a7cd42008f62cbc30fa25e8050299350599b3ce36d5f9cea44816000015182602001518360400151846060015185608001518660a001516040518080602001806020018060200180602001806020018060200187810387528d818151815260200191508051906020019080838360005b8381101561507b578082015181840152602081019050615060565b50505050905090810190601f1680156150a85780820380516001836020036101000a031916815260200191505b5087810386528c818151815260200191508051906020019080838360005b838110156150e15780820151818401526020810190506150c6565b50505050905090810190601f16801561510e5780820380516001836020036101000a031916815260200191505b5087810385528b818151815260200191508051906020019080838360005b8381101561514757808201518184015260208101905061512c565b50505050905090810190601f1680156151745780820380516001836020036101000a031916815260200191505b5087810384528a818151815260200191508051906020019080838360005b838110156151ad578082015181840152602081019050615192565b50505050905090810190601f1680156151da5780820380516001836020036101000a031916815260200191505b50878103835289818151815260200191508051906020019080838360005b838110156152135780820151818401526020810190506151f8565b50505050905090810190601f1680156152405780820380516001836020036101000a031916815260200191505b50878103825288818151815260200191508051906020019080838360005b8381101561527957808201518184015260208101905061525e565b50505050905090810190601f1680156152a65780820380516001836020036101000a031916815260200191505b509c5050505050505050505050505060405180910390a1806000015181602001518260400151836060015184608001518560a001518595508494508393508292508191508090509650965096509650965096505091939550919395565b6000809054906101000a900473ffffffffffffffffffffffffffffffffffffffff1673ffffffffffffffffffffffffffffffffffffffff163373ffffffffffffffffffffffffffffffffffffffff161461535c57600080fd5b600073ffffffffffffffffffffffffffffffffffffffff168173ffffffffffffffffffffffffffffffffffffffff16141561539657600080fd5b8073ffffffffffffffffffffffffffffffffffffffff166000809054906101000a900473ffffffffffffffffffffffffffffffffffffffff1673ffffffffffffffffffffffffffffffffffffffff167f8be0079c531659141344cd1fd0a4f28419497f9722a3daafe3b4186f6b6457e060405160405180910390a3806000806101000a81548173ffffffffffffffffffffffffffffffffffffffff021916908373ffffffffffffffffffffffffffffffffffffffff16021790555050565b600033600160006101000a81548173ffffffffffffffffffffffffffffffffffffffff021916908373ffffffffffffffffffffffffffffffffffffffff1602179055506001600460003373ffffffffffffffffffffffffffffffffffffffff1673ffffffffffffffffffffffffffffffffffffffff16815260200190815260200160002060009054906101000a900460ff1660ff16146154f357600080fd5b85600c600001908051906020019061550c9291906156a9565b5084600c60010190805190602001906155269291906156a9565b5082600c60020160006101000a81548160ff02191690831515021790555081600c600301908051906020019061555d9291906156a9565b50600c600260008973ffffffffffffffffffffffffffffffffffffffff1673ffffffffffffffffffffffffffffffffffffffff168152602001908152602001600020600082018160000190805460018160011615610100020316600290046155c6929190615729565b50600182018160010190805460018160011615610100020316600290046155ee929190615729565b506002820160009054906101000a900460ff168160020160006101000a81548160ff02191690831515021790555060038201816003019080546001816001161561010002031660029004615643929190615729565b5090505083600360008973ffffffffffffffffffffffffffffffffffffffff1673ffffffffffffffffffffffffffffffffffffffff168152602001908152602001600020908051906020019061569a9291906156a9565b50600190509695505050505050565b828054600181600116156101000203166002900490600052602060002090601f016020900481019282601f106156ea57805160ff1916838001178555615718565b82800160010185558215615718579182015b828111156157175782518255916020019190600101906156fc565b5b50905061572591906158b5565b5090565b828054600181600116156101000203166002900490600052602060002090601f016020900481019282601f10615762578054855561579f565b8280016001018555821561579f57600052602060002091601f016020900482015b8281111561579e578254825591600101919060010190615783565b5b5090506157ac91906158b5565b5090565b60405180606001604052806060815260200160608152602001606081525090565b60405180606001604052806060815260200160608152602001606081525090565b60405180606001604052806060815260200160608152602001606081525090565b60405180606001604052806060815260200160608152602001606081525090565b60405180606001604052806060815260200160608152602001606081525090565b60405180608001604052806060815260200160608152602001600015158152602001606081525090565b6040518060c001604052806060815260200160608152602001606081526020016060815260200160608152602001606081525090565b6158d791905b808211156158d35760008160009055506001016158bb565b5090565b9056fea265627a7a72315820550f1872dfd0bb698f6c189df8fd17aaaf2154a76ca42451e5ab8f434bfde8e864736f6c63430005100032",
  "source": "pragma solidity ^0.5.0;\r\n\r\nimport \"./AgrowChainStorageOwnable.sol\";\r\n\r\ncontract AgrowChainStorage is AgrowChainStorageOwnable {\r\n    \r\n    address public lastAccess;\r\n    constructor() public {\r\n        authorizedCaller[msg.sender] = 1;\r\n        emit AuthorizedCaller(msg.sender);\r\n    }\r\n    \r\n    /* Events */\r\n    event AuthorizedCaller(address caller);\r\n    event DeAuthorizedCaller(address caller);\r\n    event sBasicDetails(address batchNo);\r\n    event gBasicDetails(string registrationNo,string farmerName,string manufacturerName,string distributorName,string wholesalerName,string retailerName);\r\n    /* Modifiers */\r\n    \r\n    modifier onlyAuthCaller(){\r\n        lastAccess = msg.sender;\r\n        require(authorizedCaller[msg.sender] == 1);\r\n        _;\r\n    }\r\n    \r\n    /* User Related */\r\n    struct user {\r\n        string name;\r\n        string contactNo;\r\n        bool isActive;\r\n        string profileHash;\r\n    } \r\n    \r\n    mapping(address => user) userDetails;\r\n    mapping(address => string) userRole;\r\n    \r\n    /* Caller Mapping */\r\n    mapping(address => uint8) authorizedCaller;\r\n    \r\n    /* authorize caller */\r\n    function authorizeCaller(address _caller) public onlyOwner returns(bool) \r\n    {\r\n        authorizedCaller[_caller] = 1;\r\n        emit AuthorizedCaller(_caller);\r\n        return true;\r\n    }\r\n    \r\n    /* deauthorize caller */\r\n    function deAuthorizeCaller(address _caller) public onlyOwner returns(bool) \r\n    {\r\n        authorizedCaller[_caller] = 0;\r\n        emit DeAuthorizedCaller(_caller);\r\n        return true;\r\n    }\r\n    \r\n    /*User Roles\r\n        SUPER_ADMIN,\r\n        FARMER,\r\n        MANUFACTURER,\r\n        DISTRIBUTOR,\r\n        WHOLESALER,\r\n        RETAILER,\r\n        CONSUMER\r\n        \r\n        \r\n        FARM_INSPECTION,\r\n        HARVESTER,\r\n        EXPORTER,\r\n        IMPORTER,\r\n        PROCESSOR\r\n    */\r\n    \r\n    /* Process Related */\r\n     struct basicDetails {\r\n        string registrationNo;\r\n        string farmerName;\r\n        string manufacturerName;\r\n        string distributorName;\r\n        string wholesalerName;\r\n        string retailerName;\r\n        \r\n    }\r\n    \r\n    struct farmer{\r\n        string farmerID;\r\n        string cropType;\r\n        string quantity;\r\n    }\r\n\r\n    struct manufacturer{\r\n        string manufacturerID;\r\n        string cropType;\r\n        string quantity;\r\n\r\n    }\r\n\r\n    struct distributor{\r\n        string distributorID;\r\n        string cropType;\r\n        string quantity;\r\n\r\n    }\r\n\r\n    struct wholesaler{\r\n        string wholesalerID;\r\n        string cropType;\r\n        string quantity;\r\n\r\n    }\r\n\r\n    struct retailer{\r\n        string retailerID;\r\n        string cropType;\r\n        string quantity;\r\n\r\n    }\r\n    \r\n    \r\n    \r\n    mapping (address => basicDetails) batchBasicDetails;    \r\n    mapping (address => farmer) batchFarmer;\r\n    mapping (address => manufacturer) batchManufacturer;\r\n    mapping (address => distributor) batchDistributor;\r\n    mapping (address => wholesaler) batchWholesaler;\r\n    mapping (address => retailer) batchRetailer;\r\n    \r\n   \r\n    mapping (address => string) nextAction;\r\n    \r\n    /*Initialize struct pointer*/\r\n    user userDetail;\r\n    basicDetails basicDetailsData;\r\n    \r\n    farmer farmerData;\r\n    manufacturer manufacturerData;\r\n    distributor distributorData;\r\n    wholesaler wholesalerData;\r\n    retailer retailerData;\r\n    \r\n    \r\n    \r\n    \r\n    \r\n    /* Get User Role */\r\n    function getUserRole(address _userAddress) public onlyAuthCaller  returns(string memory)\r\n    {\r\n        return userRole[_userAddress];\r\n    }\r\n    \r\n    /* Get Next Action  */    \r\n    function getNextAction(address _batchNo) public onlyAuthCaller  returns(string memory)\r\n    {\r\n        return nextAction[_batchNo];\r\n    }\r\n        \r\n    /*set user details*/\r\n    function setUser(address _userAddress,\r\n                     string memory _name, \r\n                     string memory _contactNo, \r\n                     string memory _role, \r\n                     bool _isActive,\r\n                     string memory _profileHash) public onlyAuthCaller returns(bool){\r\n        \r\n        /*store data into struct*/\r\n        userDetail.name = _name;\r\n        userDetail.contactNo = _contactNo;\r\n        userDetail.isActive = _isActive;\r\n        userDetail.profileHash = _profileHash;\r\n        \r\n        /*store data into mapping*/\r\n        userDetails[_userAddress] = userDetail;\r\n        userRole[_userAddress] = _role;\r\n        \r\n        return true;\r\n    }  \r\n    \r\n    /*get user details*/\r\n    function getUser(address _userAddress) public onlyAuthCaller  returns(string memory name, \r\n                                                                    string memory contactNo, \r\n                                                                    string memory role,\r\n                                                                    bool isActive, \r\n                                                                    string memory profileHash\r\n                                                                ){\r\n\r\n        /*Getting value from struct*/\r\n        user memory tmpData = userDetails[_userAddress];\r\n        \r\n        return (tmpData.name, tmpData.contactNo, userRole[_userAddress], tmpData.isActive, tmpData.profileHash);\r\n    }\r\n    \r\n /*get batch basicDetails*/\r\n    function getBasicDetails(address _batchNo) public  onlyAuthCaller  returns(string memory registrationNo,\r\n                            string memory farmerName,\r\n                            string memory manufacturerName,\r\n                            string memory distributorName,\r\n                            string memory wholesalerName,\r\n                            string memory retailerName) {\r\n        \r\n        basicDetails memory tmpData = batchBasicDetails[_batchNo];\r\n        \r\n\r\n        emit gBasicDetails(\r\n                tmpData.registrationNo,\r\n                tmpData.farmerName,\r\n                tmpData.manufacturerName,\r\n                tmpData.distributorName,\r\n                tmpData.wholesalerName,\r\n                tmpData.retailerName);\r\n\r\n        return (tmpData.registrationNo,\r\n                tmpData.farmerName,\r\n                tmpData.manufacturerName,\r\n                tmpData.distributorName,\r\n                tmpData.wholesalerName,\r\n                tmpData.retailerName);\r\n    }\r\n    \r\n    /*set batch basicDetails*/\r\n    function setBasicDetails(string memory _registrationNo,\r\n                            string memory _farmerName,\r\n                            string memory _manufacturerName,\r\n                            string memory _distributorName,\r\n                            string memory _wholesalerName,\r\n                            string memory _retailerName\r\n                             \r\n                            ) public onlyAuthCaller returns(address) {\r\n        \r\n        uint tmpData = uint(keccak256(abi.encodePacked(msg.sender, now)));\r\n        address batchNo = address(tmpData);\r\n        \r\n        basicDetailsData.registrationNo = _registrationNo;\r\n        basicDetailsData.farmerName = _farmerName;\r\n        basicDetailsData.manufacturerName = _manufacturerName;\r\n        basicDetailsData.distributorName = _distributorName;\r\n        basicDetailsData.wholesalerName = _wholesalerName;\r\n        basicDetailsData.retailerName = _retailerName;\r\n        \r\n        \r\n        \r\n        batchBasicDetails[batchNo] = basicDetailsData;\r\n        \r\n        nextAction[batchNo] = 'FARM_INSPECTION';   \r\n        \r\n        \r\n        emit sBasicDetails(batchNo);\r\n        \r\n        return batchNo;\r\n    }\r\n    \r\n    \r\n     /*set farmer data*/\r\n    function setFarmerData(address batchNo,string memory _farmerID,string memory _cropType, string memory _quantity) public onlyAuthCaller returns(bool){\r\n        \r\n        farmerData.farmerID = _farmerID;\r\n        farmerData.cropType = _cropType;\r\n        farmerData.quantity = _quantity;\r\n        \r\n        batchFarmer[batchNo] = farmerData;\r\n        \r\n        nextAction[batchNo] = 'MANUFACTURER'; \r\n        \r\n        return true;\r\n    }\r\n\r\n\r\n    /*get farmer data*/\r\n    function getFarmerData(address batchNo) public onlyAuthCaller  returns (string memory farmerID,string memory cropType, string memory quantity){\r\n        \r\n        farmer memory tmpData = batchFarmer[batchNo];\r\n        return (tmpData.farmerID, tmpData.cropType, tmpData.quantity);\r\n    }\r\n\r\n\r\n    /*set Manufacturer data*/\r\n    function setManufacturerData(address batchNo,string memory _manufacturerID,string memory _cropType, string memory _quantity) public onlyAuthCaller returns(bool){\r\n        \r\n        manufacturerData.manufacturerID = _manufacturerID;\r\n        manufacturerData.cropType = _cropType;\r\n        manufacturerData.quantity = _quantity;\r\n\r\n        batchManufacturer[batchNo] = manufacturerData;\r\n        \r\n        nextAction[batchNo] = 'DISTRIBUTOR'; \r\n        \r\n        return true;\r\n    }\r\n\r\n\r\n    /*get manufacturer data*/\r\n    function getManufacturerData(address batchNo) public onlyAuthCaller  returns (string memory manufacturerID, string memory cropType, string memory quantity){\r\n        \r\n        manufacturer memory tmpData = batchManufacturer[batchNo];\r\n        return (tmpData.manufacturerID, tmpData.cropType, tmpData.quantity);\r\n    }\r\n\r\n\r\n    /*set distributor data*/\r\n    function setDistributorData(address batchNo,string memory _distributorID,string memory _cropType, string memory _quantity) public onlyAuthCaller returns(bool){\r\n        \r\n        distributorData.distributorID = _distributorID;\r\n        distributorData.cropType = _cropType;\r\n        distributorData.quantity = _quantity;\r\n        \r\n        batchDistributor[batchNo] = distributorData;\r\n        \r\n        nextAction[batchNo] = 'WHOLESALER'; \r\n        \r\n        return true;\r\n    }\r\n\r\n\r\n    /*get distributor data*/\r\n    function getDistributorData(address batchNo) public onlyAuthCaller  returns (string memory distributorID, string memory cropType, string memory quantity){\r\n        \r\n        distributor memory tmpData = batchDistributor[batchNo];\r\n        return (tmpData.distributorID, tmpData.cropType, tmpData.quantity);\r\n    }\r\n\r\n\r\n    /*set wholesaler data*/\r\n    function setWholesalerData(address batchNo,string memory _wholesalerID,string memory _cropType, string memory _quantity) public onlyAuthCaller returns(bool){\r\n        \r\n        wholesalerData.wholesalerID = _wholesalerID;\r\n        wholesalerData.cropType = _cropType;\r\n        wholesalerData.quantity = _quantity;\r\n        \r\n        batchWholesaler[batchNo] = wholesalerData;\r\n        \r\n        nextAction[batchNo] = 'RETAILER'; \r\n        \r\n        return true;\r\n    }\r\n\r\n\r\n    /*get wholesaler data*/\r\n    function getWholesalerData(address batchNo) public onlyAuthCaller  returns (string memory wholesalerID, string memory cropType, string memory quantity){\r\n        \r\n        wholesaler memory tmpData = batchWholesaler[batchNo];\r\n        return (tmpData.wholesalerID, tmpData.cropType, tmpData.quantity);\r\n    }\r\n\r\n    /*set retailer data*/\r\n    function setRetailerData(address batchNo,string memory _retailerID,string memory _cropType, string memory _quantity) public onlyAuthCaller returns(bool){\r\n        \r\n        retailerData.retailerID = _retailerID;\r\n        retailerData.cropType = _cropType;\r\n        retailerData.quantity = _quantity;\r\n        \r\n        batchRetailer[batchNo] = retailerData;\r\n        \r\n        nextAction[batchNo] = 'CUSTOMER'; \r\n        \r\n        return true;\r\n    }\r\n\r\n\r\n    /*get retailer data*/\r\n    function getRetailerData(address batchNo) public onlyAuthCaller  returns (string memory retailerID, string memory cropType, string memory quantity){\r\n        \r\n        retailer memory tmpData = batchRetailer[batchNo];\r\n        return (tmpData.retailerID, tmpData.cropType, tmpData.quantity);\r\n    }\r\n    \r\n   \r\n  \r\n}    \r\n",
  "sourcePath": "C:/Users/yashb/Desktop/agro-supplychain/client/src/contracts/AgrowChainStorage.sol",
  "compiler": {
    "name": "solc",
    "version": "0.5.16+commit.9c3226ce.Emscripten.clang"
  },
  "schemaVersion": "3.3.4",
  "updatedAt": "2021-03-30T11:49:32.356Z",
  "networkType": "ethereum",
  "devdoc": {
    "methods": {
      "renounceOwnership()": {
        "details": "Allows the current owner to relinquish control of the contract."
      },
      "transferOwnership(address)": {
        "details": "Allows the current owner to transfer control of the contract to a newOwner.",
        "params": {
          "newOwner": "The address to transfer ownership to."
        }
      }
    }
  },
  "userdoc": {
    "methods": {}
  }
}